:107800000C94563C0C94733C0C94733C0C94733C59
:107810000C94733C0C94733C0C94733C0C94733C2C
:107820000C94733C0C94733C0C94733C0C94733C1C
:107830000C94733C0C94733C0C94733C0C94733C0C
:107840000C94733C0C94733C0C94733C0C94733CFC
:107850000C94733C0C94733C0C94733C0C94733CEC
:107860000C94733C0C94733C0C94733C0C94733CDC
:107870000C94733C0C94733C0C94733C0C94733CCC
:107880000C94733C0C94733C0C94733C0C94733CBC
:107890000C94733C0C94733C0C94733C0C94733CAC
:1078A0000C94733C0C94733C0C94733C11241FBED9
:1078B000CFEFDAE0DEBFCDBF11E0A0E0B1E0E4E859
:1078C000FFE702C005900D92A230B107D9F712E090
:1078D000A2E0B1E001C01D92AD30B107E1F70E9416
:1078E000473D0C94C03F0C94003C982F959595957E
:1078F00095959595905D8F708A301CF0282F295AA8
:1079000002C0282F205D8091C80085FFFCCF909396
:10791000CE008091C80085FFFCCF2093CE00089553
:10792000982F8091C80085FFFCCF9093CE000895DA
:10793000EF92FF920F931F93EE24FF24870113C051
:107940000894E11CF11C011D111D81E0E81684E280
:10795000F80684EF080780E0180728F0E09104019A
:10796000F091050109958091C80087FFE9CF8091CA
:10797000CE001F910F91FF90EF9008950E94983CC8
:10798000982F8091C80085FFFCCF9093CE00913650
:1079900014F0975503C090330CF09053892F08953D
:1079A0001F930E94BE3C182F0E94BE3C1295107F70
:1079B000810F1F9108951F93182F03C00E94983CB8
:1079C00011501123D9F71F9108951F93182F0E946A
:1079D000983C8032A9F48091C80085FFFCCF84E1F7
:1079E0008093CE008091C80085FFFCCF1093CE001D
:1079F0008091C80085FFFCCF80E18093CE000CC051
:107A0000809103018F5F80930301853029F4E09119
:107A10000401F091050109951F9108950E94983C79
:107A2000803279F48091C80085FFFCCF84E1809397
:107A3000CE008091C80085FFFCCF80E18093CE000E
:107A40000895809103018F5F80930301853029F4AD
:107A5000E0910401F09105010995089540E951E094
:107A600013C0479A28EE33E0FA013197F1F721501D
:107A70003040D1F7479828EE33E0FA013197F1F71B
:107A800021503040D1F78150882359F708952F9223
:107A90003F924F925F926F927F928F929F92AF929E
:107AA000BF92CF92DF92EF92FF920F931F93CF93EB
:107AB000DF9394B714BE809160008861809360006A
:107AC0001092600091FD05C0E0910401F091050164
:107AD000099580E18093CC001092CD001092C800EF
:107AE00086E08093CA0088E18093C9003F9A83E0D2
:107AF0000E942E3D14E1812EB0E19B2EA6E57A2E48
:107B0000F2E56F2EE0E25E2E79E4472E63E5362E35
:107B100050E5252E0E94983C803309F460C08133E3
:107B2000D9F50E94983C803209F006C28091C800C5
:107B300085FFFCCF8092CE008091C80085FFFCCFEE
:107B400081E48093CE008091C80085FFFCCF7092C5
:107B5000CE008091C80085FFFCCF6092CE0080915E
:107B6000C80085FFFCCF5092CE008091C80085FFF1
:107B7000FCCF4092CE008091C80085FFFCCF3092B0
:107B8000CE008091C80085FFFCCF2092CE0080916E
:107B9000C80085FFFCCFC7C1803439F40E94983CEF
:107BA0008638E8F00E94983C1AC0813499F40E940B
:107BB000983C803811F482E0BCC1813811F481E036
:107BC000B8C1823811F480E1B4C1883909F0B0C17C
:107BD00083E0AFC1823431F484E10E94DB3C0E9437
:107BE0000E3D98CF853411F485E0F7CF8035B9F399
:107BF0008235A9F3813531F40E940E3D88E08093EF
:107C00006000FFCF853549F40E94983C80930601BF
:107C10000E94983C80930701E2CF8635C9F40E9408
:107C2000983C803389F40E94983C0E94983C182F1D
:107C30000E94983C112311F48EE17BC1113011F4A4
:107C400085E977C187E875C183E00E94DB3C70C19C
:107C5000843609F0D1C00E94983C809309020E94AA
:107C6000983C8093080280910C028E7F80930C02D6
:107C70000E94983C853429F480910C0281608093A5
:107C80000C0200E010E008C00E94983CF801E85F98
:107C9000FE4F80830F5F1F4F809108029091090271
:107CA0000817190788F30E94983C803209F044C1F4
:107CB00080910C0280FF2AC08091060190910701FB
:107CC000880F991F909307018093060100E010E050
:107CD00015C0F801E85FFE4F809106019091070101
:107CE00060810E94B23F8091060190910701019648
:107CF00090930701809306010F5F1F4F8091080248
:107D0000909109020817190720F36BC080910701B1
:107D10008823880F880B817080930B028091060165
:107D200090910701880F991F909307018093060196
:107D30008091080280FF09C0809108029091090299
:107D400001969093090280930802F894F999FECF66
:107D50001127E0910601F0910701C8E0D1E0809180
:107D6000080290910902103091F4009157000170BF
:107D70000130D9F303E000935700E89500915700D4
:107D800001700130D9F301E100935700E8950990A3
:107D900019900091570001700130D9F301E0009370
:107DA0005700E8951395103498F01127009157006B
:107DB00001700130D9F305E000935700E895009178
:107DC000570001700130D9F301E100935700E895A5
:107DD0003296029709F0C7CF103011F00296E5CF26
:107DE00011248091C80085FFFCCF8092CE00809145
:107DF000C80085FFFCCF97C0843709F06FC00E9490
:107E0000983C809309020E94983C809308028091DC
:107E1000060190910701880F991F909307018093A5
:107E200006010E94983C90910C02853411F49160F7
:107E300001C09E7F90930C020E94983C803209F012
:107E400069CE8091C80085FFFCCF8092CE00C090A3
:107E50000802D090090280910C02AA24A394A822BF
:107E600092E0B92EB822EE24FF2430C0AA20A9F057
:107E70000091060110910701C8010E94AA3F982FA6
:107E80008091C80085FFFCCF9093CE000F5F1F4FFD
:107E9000109307010093060116C0BB2059F4E0912E
:107EA0000601F091070194918091C80085FFFCCFF5
:107EB0009093CE00809106019091070101969093D6
:107EC0000701809306010894E11CF11CEC14FD04E9
:107ED00068F28091C80085FFFCCF25C0853731F559
:107EE0000E94983C803241F58091C80085FFFCCF0C
:107EF0008092CE008091C80085FFFCCF8EE18093F8
:107F0000CE008091C80085FFFCCF85E98093CE002C
:107F10008091C80085FFFCCF87E88093CE008091D8
:107F2000C80085FFFCCF9092CE00F4CD863721F4B7
:107F300080E00E94E53CEECD809103018F5F80934D
:107F40000301853009F0E6CDE0910401F0910501CF
:107F50000995E0CDF999FECF92BD81BDF89A992798
:107F600080B50895262FF999FECF1FBA92BD81BD25
:107F700020BD0FB6F894FA9AF99A0FBE01960895AB
:047F8000F894FFCFA3
:027F840080007B
:040000030000780081
:00000001FF
