:1070000055C000006EC000006CC000006AC00000E7
:1070100068C0000066C0000064C0000062C00000DC
:1070200060C000005EC00000FEC400005AC0000046
:1070300058C0000056C0000054C0000052C00000FC
:1070400050C0000078C000004CC000004AC00000E2
:1070500048C0000046C0000044C0000042C000001C
:1070600040C000003EC000003CC000003AC000002C
:1070700038C0000036C0000034C0000032C000003C
:1070800030C000002EC000002CC000002AC000004C
:1070900028C0000026C0000024C0000022C000005C
:1070A00020C000001EC000001CC0000011241FBE34
:1070B000CFEFDAE0DEBFCDBF11E0A0E0B1E0EAE45F
:1070C000FFE702C005900D92A83AB107D9F712E088
:1070D000A8EAB1E001C01D92AF33B107E1F79BD33D
:1070E00032C78ECFF89410926F00109281001092E8
:1070F00085001092840081E085BF15BE47985D9A97
:10710000289A0C94000008952091330230913402A3
:107110002F5F3F4F3093340220933302932F37FF7A
:1071200003C08EEF831B982F990F921710F4479886
:107130000895479A08951F920F920FB60F92112447
:107140002F938F939F93EF93FF931092850010924C
:1071500084008091A8019091A901009741F00197C6
:107160009093A9018093A801892B09F45D9A8091DD
:10717000AA019091AB01009741F001979093AB0168
:107180008093AA01892B09F4289AE0E0F0E0859128
:1071900094918F5F9F4F49F08091AC019091AD0128
:1071A00001969093AD018093AC01FF91EF919F9177
:1071B0008F912F910F900FBE0F901F901895809177
:1071C000AE018130C1F484E08093E9000DC080916C
:1071D000E8008B778093E80003C08EB38823A1F08A
:1071E0008091E80082FFF9CF8091E80085FFEFCF22
:1071F0008091F1000895823039F48091C80087FFB2
:10720000FCCF8091CE00089580E00895982F809162
:10721000AE018130B9F483E08093E9008091E80009
:1072200085FD0DC08091E8008E778093E80003C053
:107230008EB38823B1F08091E80080FFF9CF90935E
:10724000F10008C0823069F48091C80085FFFCCF4E
:107250009093CE005D9884E690E09093A90180938E
:10726000A80108956F927F928F929F92AF92BF92E2
:10727000CF92DF92EF92FF920F931F93CF93DF9302
:107280009091AE01923081F084E08093E90080918A
:10729000E80082FF06C0992339F481E08093AE01B3
:1072A00003C0913009F432C29091AE01913049F09F
:1072B0008091C80087FF2AC2992319F482E0809345
:1072C000AE01289884E690E09093AB018093AA01E8
:1072D00076DF182F853481F48CE49DE19093AD0125
:1072E0008093AC0107B600FCFDCFF999FECF81E198
:1072F00080935700E89503C0843519F460DF8DE072
:10730000D7C18C34E1F38035D1F3843721F484E4A0
:107310007DDF80E0CDC1813611F489E5C9C18134BA
:10732000F1F44DDF182F4BDF90E0880F991FAA274B
:1073300097FDA095BA2F312F330F20E0442737FD5A
:107340004095542F822B932BA42BB52B8093AF0108
:107350009093B001A093B101B093B201D0CF803728
:1073600011F483E5A5C1833549F4C0E0D1E08991EA
:107370004DDF21E0C730D207D1F79BC1863521F41C
:1073800081E344DF80E394C1833731F487E83EDF53
:1073900085E93CDF8EE18CC18536B9F4E0E0F0E0B0
:1073A00093E085E090935700E89507B600FCFDCF89
:1073B00080935700E89507B600FCFDCFE058FF4FDB
:1073C000A0E7E030FA0771F79ACF823739F4E1E0AD
:1073D000F0E089E08093570084916AC1863439F4E3
:1073E000E0E0F0E089E080935700849161C18E3441
:1073F00039F4E3E0F0E089E080935700849158C1CC
:10740000813539F4E2E0F0E089E08093570084911F
:107410004FC1823631F489E5F9DE80E0F7DE80E89D
:1074200047C1823419F0873609F0F0C01092AD01DF
:107430001092AC01C4DE082FC2DEF82EC0DE782E1A
:107440008554823008F033C1902F80E0CF2CDD24AA
:10745000C82AD92A10926F00173609F04EC081E170
:1074600080935700E895BB24AA24A39441C0E090E0
:10747000AF01F090B0010091B1011091B201B6E4FA
:107480007B16D9F4EB2DF0E0EE29FF29E4918E2F45
:10749000BDDEBB2081F082E090E0A0E0B0E0E80E2D
:1074A000F91E0A1F1B1FE092AF01F092B00100937A
:1074B000B1011093B201BA2418C0D801C701B69522
:1074C000A7959795879529D5A1DE82E090E0A0E069
:1074D000B0E0E80EF91E0A1F1B1FE092AF01F09208
:1074E000B0010093B1011093B2010894C108D10812
:1074F000C114D10409F0BBCF85C003EB11E0E80152
:107500005EDE899392E0C333D907D1F78090AF0153
:107510009090B001A090B101B090B201A6E47A16AB
:1075200009F05BC083E0F40180935700E89507B64B
:1075300000FCFDCF52C0F6E47F1639F5D8014C911E
:10754000FF2001F18091AF019091B001A091B101B4
:10755000B091B2012E2D30E0D42FC0E02C2B3D2B6A
:10756000FC01090160925700E89511240296A11DC3
:10757000B11D8093AF019093B001A093B101B0937E
:10758000B20101C0E42EF62422C08091AF01909197
:10759000B001A091B101B091B201B695A7959795B0
:1075A0008795D8016C91C1D48091AF019091B001C1
:1075B000A091B101B091B2010296A11DB11D8093BD
:1075C000AF019093B001A093B101B093B2010894C0
:1075D000C108D1080F5F1F4F04C0EE24FF246624AA
:1075E0006394C114D10409F0A6CFB6E47B1641F42C
:1075F00085E0F40180935700E89507B600FCFDCFC5
:107600008DE004DE82E080936F0053C0833471F418
:107610000091AF011091B001D2DD90E021E0F801BE
:107620000C0120935700E895112469CE833619F593
:10763000E090AF01F090B0010091B1011091B20162
:10764000BEDDF701E16090E021E00C0120935700DE
:10765000E895112482E090E0A0E0B0E0E80EF91E89
:107660000A1F1B1FE092AF01F092B0010093B1011D
:107670001093B20144CE8D3661F4E091AF01F091E8
:10768000B00185E080935700E89507B600FCFDCF78
:1076900036CE823551F4E091AF01F091B001059101
:1076A0001491812FB3DD802F03C08B3111F08FE354
:1076B000ADDD8091AE01813049F583E08093E90032
:1076C0009091E8008091E8008E778093E80095FF24
:1076D00004C010C08EB38823C9F08091E80080FFF9
:1076E000F9CF8091E8008E778093E80003C08EB3D5
:1076F000882361F08091E80080FFF9CF84E08093D7
:10770000E9008091E8008B778093E800DF91CF91CA
:107710001F910F91FF90EF90DF90CF90BF90AF90AF
:107720009F908F907F906F90089590913702892F4E
:107730008F77813249F5809138028032A1F0813211
:1077400019F5913A09F58091E800877F8093E80068
:107750008DE091E067E070E017D28091E8008B77D0
:107760008093E8000895913279F48091E800877F52
:107770008093E8008DE091E067E070E069D280914D
:10778000E8008E778093E800089582E061EC42E0A3
:10779000C1D083E061E842E1BDD084E060E842E12D
:1077A000B9C084B7877F84BF38E10FB6F8943093AF
:1077B0006000109260000FBE20E880E090E00FB6FD
:1077C000F89420936100809361000FBE81E085BF33
:1077D00092E095BF3F9A209A559AE1E6F0E0208327
:1077E000108247985D9A289A109289008AEF8093B8
:1077F000880090936F0083E08093810080E1809304
:10780000CC001092CD001092C80086E08093CA0090
:107810003093C900F0C040910008509101081092C7
:1078200001081092000894B714BE88E10FB6F894CE
:1078300080936000109260000FBE292F30E0F901A4
:10784000E270F07091FD18C090FF05C08591949191
:107850008F5F9F4F81F423FF0FC0809109019091AA
:107860000A014817590741F0E0E0F0E08591949152
:107870008F5F9F4F09F036DC94DF78941092AD0152
:107880001092AC010CC0EEDC36D38091AC0190912B
:10789000AD0181549F4110F01092140135DC8091AC
:1078A0001401882381F78091E00081608093E000DB
:1078B00019DC80E090E00895FA01923049F09330AD
:1078C00061F09130F9F485E191E022E130E01EC0F1
:1078D00087E291E02EE330E019C0882329F485E6A1
:1078E00091E024E030E012C0813029F489E691E093
:1078F00022E230E00BC0823029F48DE891E028E1EB
:1079000030E004C080E090E020E030E091838083AC
:10791000C90108958093E9008091EB008160809314
:10792000EB001092ED006093EC004093ED0080912D
:10793000EE00881F8827881F0895809137028823CA
:107940008CF403C08EB38823B1F08091E80082FFED
:10795000F9CF8091E8008B778093E80008958EB38B
:10796000882349F08091E80080FFF9CF8091E800FA
:107970008E778093E8000895EF92FF920F931F9304
:1079800045D04CD008ED10E0F80180818F778083DE
:1079900080818068808380818F7D808319BC1EBA3E
:1079A0001092350280EEE82EF12CF70180818B7F5A
:1079B0008083F80180818160808380E060E042E024
:1079C000A9DFE1EEF0E080818E7F8083E2EEF0E0DF
:1079D000808181608083808188608083F7018081DD
:1079E0008E7F8083F8018081806180831F910F9159
:1079F000FF90EF900895E7EDF0E080818160808353
:107A00008AE482BF81E080933602B6CFE8EDF0E0F1
:107A100080818E7F80831092E20008951092DA00B8
:107A20001092E10008951F920F920FB60F92112449
:107A30002F933F934F935F936F937F938F939F9376
:107A4000AF93BF93EF93FF938091DA0080FF1BC049
:107A50008091D80080FF17C08091DA008E7F8093DC
:107A6000DA008091D90080FF0BC080E189BD82E1FE
:107A700089BD09B400FEFDCF81E08EBB3BD203C0BF
:107A800019BC1EBA37D28091E10080FF17C08091E7
:107A9000E20080FF13C08091E2008E7F8093E200BD
:107AA0008091E20080618093E2008091D800806242
:107AB0008093D80019BC85E08EBB1CD28091E10078
:107AC00084FF2CC08091E20084FF28C080E189BD42
:107AD00082E189BD09B400FEFDCF8091D8008F7D81
:107AE0008093D8008091E1008F7E8093E1008091A7
:107AF000E2008F7E8093E2008091E20081608093BB
:107B0000E20080913502882331F48091E30087FD03
:107B100002C081E001C084E08EBBECD18091E10025
:107B200083FF21C08091E20083FF1DC08091E100AE
:107B3000877F8093E10082E08EBB109235028091B6
:107B4000E1008E7F8093E1008091E2008E7F809340
:107B5000E2008091E20080618093E20080E060E0DA
:107B600042E0D8DEC7D1FF91EF91BF91AF919F91D5
:107B70008F917F916F915F914F913F912F910F90D6
:107B80000FBE0F901F9018959C0140913D0250919F
:107B90003E024617570718F4F90190E044C06115FA
:107BA000710511F0AB01F8CF8091E8008E778093DA
:107BB000E80040E050E0F0CF8EB3882309F444C0E1
:107BC000853009F443C08091E80083FF02C081E062
:107BD00008958091E80082FD31C08091E80080FF27
:107BE00022C08091F3009091F200782F60E0292F5D
:107BF00030E0262B372B07C081918093F100415054
:107C000050402F5F3F4F4115510519F02830310585
:107C100098F390E02830310509F491E08091E80074
:107C20008E778093E8004115510531F6992321F6AE
:107C300005C08EB3882341F0853041F08091E80083
:107C400082FFF7CF80E0089582E0089583E00895F1
:107C50009C016115710529F48091E8008B77809370
:107C6000E800F90126C08EB3882391F1853091F1A7
:107C70008091E80083FF02C081E008958091E800D0
:107C800082FFF1CF06C08091F10081936150704076
:107C900059F02091F3008091F200322F20E090E023
:107CA000822B932B892B79F78091E8008B77809337
:107CB000E80061157105B9F605C08EB3882341F05F
:107CC000853041F08091E80080FFF7CF80E0089593
:107CD00082E0089583E008950F931F93DF93CF937D
:107CE00000D0CDB7DEB7E7E3F2E08091F1008193F9
:107CF00082E0EF33F807C9F718DD8091E80083FFD1
:107D0000E4C08091370290913802953009F46DC03B
:107D1000963040F4913081F1913070F0933009F059
:107D2000D4C02AC0983009F4A3C0993009F4B2C075
:107D3000963009F0CAC07CC0803809F4C6C08238C9
:107D400009F0C3C080913B0287708093E900809165
:107D5000EB001092E9002091E800277F2093E800D3
:107D600090E025E0969587952A95E1F781708093BC
:107D7000F1001092F10087C0882319F0823009F0D9
:107D8000A4C08F71823009F0A0C08091390288238D
:107D900031F520913B02277009F497C02093E90048
:107DA0008091EB0080FF1BC0933021F48091EB00A9
:107DB000806213C08091EB0080618093EB0081E0D2
:107DC00090E002C0880F991F2A95E2F78093EA009D
:107DD0001092EA008091EB0088608093EB00109293
:107DE000E9008091E800877F51C0882309F06DC0C9
:107DF000109139021F770FB7F8948091E800877FC0
:107E00008093E8009ADD8091E80080FFFCCF8091AC
:107E1000E3008078812B8093E30080688093E30007
:107E2000112311F482E001C083E08EBB0FBF4DC06F
:107E30008058823008F049C08091390290913A020E
:107E400060913B02AE014F5F5F4F36DDBC01009792
:107E500009F43BC08091E800877F8093E800898126
:107E60009A8192DE8091E8008B778093E8002DC0A4
:107E7000803859F58091E800877F8093E8008091F1
:107E800035028093F1008091E8008E778093E800BE
:107E900054DD1BC08823C9F4909139029230A8F4B4
:107EA0008091E800877F8093E8009093350245DD5C
:107EB00080913502882331F48091E30087FD02C070
:107EC00081E001C084E08EBB60DC8091E80083FF2C
:107ED0000AC08091EB0080628093EB008091E80003
:107EE000877F8093E8000F900F90CF91DF911F91D3
:107EF0000F91089508951F938EB3882361F0109118
:107F0000E9001092E9008091E80083FF01C0E4DEFF
:107F100017701093E9001F910895F999FECF92BD53
:107F200081BDF89A992780B50895262FF999FECF3B
:107F30001FBA92BD81BD20BD0FB6F894FA9AF99A86
:0A7F40000FBE01960895F894FFCFDC
:107F4A004341544552494E410077770008000000EA
:107F5A000000000801120110010200000841233646
:107F6A000001000201000109023E00020100803204
:107F7A000904000001020201000524001001042482
:107F8A0002040524060001070582030800FF09040C
:107F9A000100020A0000000705040210000107059B
:107FAA0083021000010403090422034100720064E1
:107FBA0000750069006E006F0020004C0065006FBC
:107FCA00006E006100720064006F00000018034137
:107FDA000072006400750069006E006F0020004C9A
:087FEA00004C00430000000000
:040000030000700089
:00000001FF
